:100000000C9435000C945D000C940E020C945D0071
:100010000C945D000C945D000C945D000C945D00EC
:100020000C945D000C945D000C945D000C945D00DC
:100030000C945D000C945D000C945D000C945D00CC
:100040000C946C010C945D000C94DC010C94B601D2
:100050000C945D000C945D000C945D000C945D00AC
:100060000C945D000C945D00F40211241FBECFEFD0
:10007000D8E0DEBFCDBF11E0A0E0B1E0E2E5F6E000
:1000800002C005900D92A231B107D9F721E0A2E19B
:10009000B1E001C01D92A83BB207E1F710E0C5E353
:1000A000D0E004C02197FE010E942103C433D10790
:1000B000C9F70E943C020C9427030C940000AF92F5
:1000C000BF92CF92DF92EF92FF920F931F93CF9345
:1000D000DF936C017B018B01040F151FEB015E01A7
:1000E000AE18BF08C017D10759F06991D601ED913C
:1000F000FC910190F081E02DC6010995892B79F7DB
:10010000C501DF91CF911F910F91FF90EF90DF908C
:10011000CF90BF90AF900895FC01538D448D252F53
:1001200030E0842F90E0821B930B541710F0CF9691
:10013000089501970895FC01918D828D981761F0C3
:10014000A28DAE0FBF2FB11D5D968C91928D9F5FDA
:100150009F73928F90E008958FEF9FEF0895FC01B9
:10016000918D828D981731F0828DE80FF11D858D6C
:1001700090E008958FEF9FEF0895FC01918D228DFF
:10018000892F90E0805C9F4F821B91098F73992784
:10019000089582E191E00E94BD0021E0892B09F4DD
:1001A00020E0822F089580E090E0892B29F00E94C2
:1001B000C90081110C9400000895FC01A48DA80FC2
:1001C000B92FB11DA35ABF4F2C91848D90E0019699
:1001D0008F739927848FA689B7892C93A089B189B9
:1001E0008C91837080648C93938D848D981306C05A
:1001F0000288F389E02D80818F7D80830895EF92BE
:10020000FF920F931F93CF93DF93EC0181E0888FD0
:100210009B8D8C8D98131AC0E889F989808185FFA0
:1002200015C09FB7F894EE89FF896083E889F98942
:1002300080818370806480839FBF81E090E0DF9144
:10024000CF911F910F91FF90EF900895F62E0B8D97
:1002500010E00F5F1F4F0F731127E02E8C8D8E1152
:100260000CC00FB607FCFACFE889F989808185FFB9
:10027000F5CFCE010E94DD00F1CFEB8DEC0FFD2F0D
:10028000F11DE35AFF4FF0829FB7F8940B8FEA8974
:10029000FB8980818062CFCFCF93DF93EC01888D83
:1002A0008823B9F0AA89BB89E889F9898C9185FDF1
:1002B00003C0808186FD0DC00FB607FCF7CF8C917F
:1002C00085FFF2CF808185FFEDCFCE010E94DD005A
:1002D000E9CFDF91CF9108951F920F920FB60F9241
:1002E00011242F933F938F939F93AF93BF9380914C
:1002F000B4019091B501A091B601B091B7013091D0
:10030000B30123E0230F2D3758F50196A11DB11D30
:100310002093B3018093B4019093B501A093B601EB
:10032000B093B7018091AF019091B001A091B1015C
:10033000B091B2010196A11DB11D8093AF019093C0
:10034000B001A093B101B093B201BF91AF919F9161
:100350008F913F912F910F900FBE0F901F90189586
:1003600026E8230F0296A11DB11DD2CF1F920F9236
:100370000FB60F9211242F933F934F935F936F9378
:100380007F938F939F93AF93BF93EF93FF9382E1FC
:1003900091E00E94DD00FF91EF91BF91AF919F919D
:1003A0008F917F916F915F914F913F912F910F901E
:1003B0000FBE0F901F9018951F920F920FB60F92BD
:1003C00011242F938F939F93EF93FF93E09122013A
:1003D000F09123018081E0912801F091290182FDB3
:1003E0001BC0908180912B018F5F8F7320912C0116
:1003F000821741F0E0912B01F0E0EE5EFE4F958F09
:1004000080932B01FF91EF919F918F912F910F90EE
:100410000FBE0F901F9018958081F4CF1F920F92FE
:100420000FB60F9211242F933F934F938F939F9367
:1004300085E090E018B82FEF39E648E121503040D0
:100440004040E1F700C0000028B1276028B92FEF35
:1004500039E648E1215030404040E1F700C000005B
:10046000019741F79F918F914F913F912F910F905D
:100470000FBE0F901F901895789484B5826084BD4C
:1004800084B5816084BD85B5826085BD85B5816098
:1004900085BD80916E00816080936E001092810016
:1004A00080918100826080938100809181008160D1
:1004B0008093810080918000816080938000809192
:1004C000B10084608093B1008091B000816080931E
:1004D000B00080917A00846080937A0080917A00E5
:1004E000826080937A0080917A00816080937A00A4
:1004F00080917A00806880937A001092C1008FB753
:100500008F778FBF5398E99A809169008C608093B0
:1005100069008FB780688FBF87B1876087B918B8C7
:10052000E0912201F091230182E08083E0911E019D
:10053000F0911F011082E0912001F09121018FECD8
:10054000808310922A01E0912601F091270186E034
:100550008083E0912401F091250180818061808376
:10056000E0912401F0912501808188608083E091F1
:100570002401F0912501808180688083E09124012D
:10058000F091250180818F7D8083C0E0D0E0409A8A
:10059000419842982FEF89E698E1215080409040A1
:1005A000E1F700C00000419A409842982FEF89E699
:1005B00098E1215080409040E1F700C00000429A4D
:1005C000419840982FEF89E698E121508040904073
:1005D000E1F700C000002097D1F20E94C9008823F3
:1005E000B1F20E940000D3CFE2E1F1E01382128267
:1005F00088EE93E0A0E0B0E084839583A683B78380
:1006000084E091E09183808385EC90E095878487F6
:1006100084EC90E09787868780EC90E0918B808BCC
:1006200081EC90E0938B828B82EC90E0958B848BB5
:1006300086EC90E0978B868B118E128E138E148E23
:100640000895EE0FFF1F0590F491E02D0994F894A2
:02065000FFCFDA
:1006520000000000FF005F008C004C01BD009B0009
:02066200AF00E7
:107E0000112484B714BE81FFFDD085E080938100EA
:107E100082E08093C00088E18093C10096E0909357
:107E2000C20090E19093C400809360008EE0809344
:107E30006000259A86E020E33CEF91E030938500D6
:107E40002093840096BBB09BFECF1D9AA8958150CD
:107E5000A9F7C0E0D0E008E138E0F32EEE24E39487
:107E600045E0B42E51E1A52E13E0A7D0813491F462
:107E7000A4D0D82EAED082E8D81203C084E096D029
:107E800092C0E1E8DE1203C084E090D08CC083E0B1
:107E90008DD089C0823419F484E1A7D084C08534A0
:107EA00019F485E0A2D07FC0853549F486D0C82F6B
:107EB00084D0D0E0D82BCC0FDD1F8BD074C086359A
:107EC00029F484E092D080E071D06DC0843609F04E
:107ED0003FC073D072D0982E70D0C115F0E7DF0785
:107EE00038F4FE0117BFE895C12CDD24D39403C0FC
:107EF000C12CDD24D39461D0F60181936F019E12D1
:107F0000FACFC115F0E7DF0718F0FE0117BFE895BB
:107F100060D007B600FCFDCFFE01A0E0B1E08C917F
:107F200011962C91119790E0922B0C01E7BEE895E9
:107F3000112432961296A03881E0B80781F7FE012D
:107F4000B7BEE89507B600FCFDCFA7BEE8952BC0ED
:107F50008437B1F432D031D0982E2FD03AD0892C3A
:107F6000FE016F018FEFC81AD80A84911FD08A943E
:107F7000F6018110F6CF21969A94C90DD11D13C038
:107F8000853741F426D08EE111D085E90FD08FE0FE
:107F90000DD009C0813531F400936000F09260008B
:107FA00018D001C016D080E101D05FCF9091C00001
:107FB00095FFFCCF8093C60008958091C00087FF95
:107FC000FCCF8091C00084FD01C0A8958091C600BF
:107FD0000895F3DF803239F088E18093600088E013
:107FE00080936000FFCF84E1E1CFCF93C82FE5DF1E
:107FF000C150E9F7CF91EDCFE0E6F0E098E1908352
:1080000080830895E0E6F0E088E180831082EE2727
:04801000FF270994A9
:027FFE00040479
:0400000300007E007B
:00000001FF
